{
  "_format": "hh-sol-artifact-1",
  "contractName": "OysterBasic",
  "sourceName": "contracts/OysterBasic.sol",
  "abi": [
    {
      "inputs": [],
      "stateMutability": "nonpayable",
      "type": "constructor"
    },
    {
      "anonymous": false,
      "inputs": [
        {
          "indexed": true,
          "internalType": "address",
          "name": "owner",
          "type": "address"
        },
        {
          "indexed": true,
          "internalType": "address",
          "name": "approved",
          "type": "address"
        },
        {
          "indexed": true,
          "internalType": "uint256",
          "name": "tokenId",
          "type": "uint256"
        }
      ],
      "name": "Approval",
      "type": "event"
    },
    {
      "anonymous": false,
      "inputs": [
        {
          "indexed": true,
          "internalType": "address",
          "name": "owner",
          "type": "address"
        },
        {
          "indexed": true,
          "internalType": "address",
          "name": "operator",
          "type": "address"
        },
        {
          "indexed": false,
          "internalType": "bool",
          "name": "approved",
          "type": "bool"
        }
      ],
      "name": "ApprovalForAll",
      "type": "event"
    },
    {
      "anonymous": false,
      "inputs": [
        {
          "indexed": true,
          "internalType": "address",
          "name": "previousOwner",
          "type": "address"
        },
        {
          "indexed": true,
          "internalType": "address",
          "name": "newOwner",
          "type": "address"
        }
      ],
      "name": "OwnershipTransferred",
      "type": "event"
    },
    {
      "anonymous": false,
      "inputs": [
        {
          "indexed": true,
          "internalType": "address",
          "name": "from",
          "type": "address"
        },
        {
          "indexed": true,
          "internalType": "address",
          "name": "to",
          "type": "address"
        },
        {
          "indexed": true,
          "internalType": "uint256",
          "name": "tokenId",
          "type": "uint256"
        }
      ],
      "name": "Transfer",
      "type": "event"
    },
    {
      "inputs": [
        {
          "internalType": "address",
          "name": "to",
          "type": "address"
        },
        {
          "internalType": "uint256",
          "name": "tokenId",
          "type": "uint256"
        }
      ],
      "name": "approve",
      "outputs": [],
      "stateMutability": "nonpayable",
      "type": "function"
    },
    {
      "inputs": [
        {
          "internalType": "address",
          "name": "owner",
          "type": "address"
        }
      ],
      "name": "balanceOf",
      "outputs": [
        {
          "internalType": "uint256",
          "name": "",
          "type": "uint256"
        }
      ],
      "stateMutability": "view",
      "type": "function"
    },
    {
      "inputs": [
        {
          "internalType": "uint256",
          "name": "tokenId",
          "type": "uint256"
        }
      ],
      "name": "getApproved",
      "outputs": [
        {
          "internalType": "address",
          "name": "",
          "type": "address"
        }
      ],
      "stateMutability": "view",
      "type": "function"
    },
    {
      "inputs": [
        {
          "internalType": "address",
          "name": "_owner",
          "type": "address"
        },
        {
          "internalType": "address",
          "name": "_operator",
          "type": "address"
        }
      ],
      "name": "isApprovedForAll",
      "outputs": [
        {
          "internalType": "bool",
          "name": "isOperator",
          "type": "bool"
        }
      ],
      "stateMutability": "view",
      "type": "function"
    },
    {
      "inputs": [
        {
          "internalType": "address",
          "name": "recipient",
          "type": "address"
        },
        {
          "internalType": "string",
          "name": "tokenURI",
          "type": "string"
        }
      ],
      "name": "mintNFT",
      "outputs": [
        {
          "internalType": "uint256",
          "name": "",
          "type": "uint256"
        }
      ],
      "stateMutability": "nonpayable",
      "type": "function"
    },
    {
      "inputs": [],
      "name": "name",
      "outputs": [
        {
          "internalType": "string",
          "name": "",
          "type": "string"
        }
      ],
      "stateMutability": "view",
      "type": "function"
    },
    {
      "inputs": [],
      "name": "ownedTokens",
      "outputs": [
        {
          "internalType": "string[]",
          "name": "",
          "type": "string[]"
        }
      ],
      "stateMutability": "view",
      "type": "function"
    },
    {
      "inputs": [],
      "name": "owner",
      "outputs": [
        {
          "internalType": "address",
          "name": "",
          "type": "address"
        }
      ],
      "stateMutability": "view",
      "type": "function"
    },
    {
      "inputs": [
        {
          "internalType": "uint256",
          "name": "tokenId",
          "type": "uint256"
        }
      ],
      "name": "ownerOf",
      "outputs": [
        {
          "internalType": "address",
          "name": "",
          "type": "address"
        }
      ],
      "stateMutability": "view",
      "type": "function"
    },
    {
      "inputs": [],
      "name": "renounceOwnership",
      "outputs": [],
      "stateMutability": "nonpayable",
      "type": "function"
    },
    {
      "inputs": [
        {
          "internalType": "address",
          "name": "from",
          "type": "address"
        },
        {
          "internalType": "address",
          "name": "to",
          "type": "address"
        },
        {
          "internalType": "uint256",
          "name": "tokenId",
          "type": "uint256"
        }
      ],
      "name": "safeTransferFrom",
      "outputs": [],
      "stateMutability": "nonpayable",
      "type": "function"
    },
    {
      "inputs": [
        {
          "internalType": "address",
          "name": "from",
          "type": "address"
        },
        {
          "internalType": "address",
          "name": "to",
          "type": "address"
        },
        {
          "internalType": "uint256",
          "name": "tokenId",
          "type": "uint256"
        },
        {
          "internalType": "bytes",
          "name": "_data",
          "type": "bytes"
        }
      ],
      "name": "safeTransferFrom",
      "outputs": [],
      "stateMutability": "nonpayable",
      "type": "function"
    },
    {
      "inputs": [
        {
          "internalType": "address",
          "name": "operator",
          "type": "address"
        },
        {
          "internalType": "bool",
          "name": "approved",
          "type": "bool"
        }
      ],
      "name": "setApprovalForAll",
      "outputs": [],
      "stateMutability": "nonpayable",
      "type": "function"
    },
    {
      "inputs": [
        {
          "internalType": "bytes4",
          "name": "interfaceId",
          "type": "bytes4"
        }
      ],
      "name": "supportsInterface",
      "outputs": [
        {
          "internalType": "bool",
          "name": "",
          "type": "bool"
        }
      ],
      "stateMutability": "view",
      "type": "function"
    },
    {
      "inputs": [],
      "name": "symbol",
      "outputs": [
        {
          "internalType": "string",
          "name": "",
          "type": "string"
        }
      ],
      "stateMutability": "view",
      "type": "function"
    },
    {
      "inputs": [
        {
          "internalType": "uint256",
          "name": "tokenId",
          "type": "uint256"
        }
      ],
      "name": "tokenURI",
      "outputs": [
        {
          "internalType": "string",
          "name": "",
          "type": "string"
        }
      ],
      "stateMutability": "view",
      "type": "function"
    },
    {
      "inputs": [
        {
          "internalType": "address",
          "name": "from",
          "type": "address"
        },
        {
          "internalType": "address",
          "name": "to",
          "type": "address"
        },
        {
          "internalType": "uint256",
          "name": "tokenId",
          "type": "uint256"
        }
      ],
      "name": "transferFrom",
      "outputs": [],
      "stateMutability": "nonpayable",
      "type": "function"
    },
    {
      "inputs": [
        {
          "internalType": "address",
          "name": "newOwner",
          "type": "address"
        }
      ],
      "name": "transferOwnership",
      "outputs": [],
      "stateMutability": "nonpayable",
      "type": "function"
    }
  ],
  "bytecode": "0x60806040523480156200001157600080fd5b506040518060400160405280600b81526020017f4f797374657242617369630000000000000000000000000000000000000000008152506040518060400160405280600381526020017f4f59420000000000000000000000000000000000000000000000000000000000815250816000908051906020019062000096929190620001a6565b508060019080519060200190620000af929190620001a6565b505050620000d2620000c6620000d860201b60201c565b620000e060201b60201c565b620002bb565b600033905090565b6000600760009054906101000a900473ffffffffffffffffffffffffffffffffffffffff16905081600760006101000a81548173ffffffffffffffffffffffffffffffffffffffff021916908373ffffffffffffffffffffffffffffffffffffffff1602179055508173ffffffffffffffffffffffffffffffffffffffff168173ffffffffffffffffffffffffffffffffffffffff167f8be0079c531659141344cd1fd0a4f28419497f9722a3daafe3b4186f6b6457e060405160405180910390a35050565b828054620001b49062000256565b90600052602060002090601f016020900481019282620001d8576000855562000224565b82601f10620001f357805160ff191683800117855562000224565b8280016001018555821562000224579182015b828111156200022357825182559160200191906001019062000206565b5b50905062000233919062000237565b5090565b5b808211156200025257600081600090555060010162000238565b5090565b600060028204905060018216806200026f57607f821691505b602082108114156200028657620002856200028c565b5b50919050565b7f4e487b7100000000000000000000000000000000000000000000000000000000600052602260045260246000fd5b6133c880620002cb6000396000f3fe608060405234801561001057600080fd5b50600436106101165760003560e01c8063715018a6116100a2578063b88d4fde11610071578063b88d4fde146102cd578063c87b56dd146102e9578063e985e9c514610319578063eacabe1414610349578063f2fde38b1461037957610116565b8063715018a61461026b5780638da5cb5b1461027557806395d89b4114610293578063a22cb465146102b157610116565b806319cba6b4116100e957806319cba6b4146101b557806323b872dd146101d357806342842e0e146101ef5780636352211e1461020b57806370a082311461023b57610116565b806301ffc9a71461011b57806306fdde031461014b578063081812fc14610169578063095ea7b314610199575b600080fd5b61013560048036038101906101309190612249565b610395565b6040516101429190612779565b60405180910390f35b610153610477565b6040516101609190612794565b60405180910390f35b610183600480360381019061017e919061229b565b610509565b60405161019091906126f0565b60405180910390f35b6101b360048036038101906101ae919061220d565b61058e565b005b6101bd6106a6565b6040516101ca9190612757565b60405180910390f35b6101ed60048036038101906101e891906120b3565b6108c8565b005b610209600480360381019061020491906120b3565b610928565b005b6102256004803603810190610220919061229b565b610948565b60405161023291906126f0565b60405180910390f35b6102556004803603810190610250919061204e565b6109fa565b60405161026291906129f6565b60405180910390f35b610273610ab2565b005b61027d610b3a565b60405161028a91906126f0565b60405180910390f35b61029b610b64565b6040516102a89190612794565b60405180910390f35b6102cb60048036038101906102c6919061217d565b610bf6565b005b6102e760048036038101906102e29190612102565b610c0c565b005b61030360048036038101906102fe919061229b565b610c6e565b6040516103109190612794565b60405180910390f35b610333600480360381019061032e9190612077565b610dc0565b6040516103409190612779565b60405180910390f35b610363600480360381019061035e91906121b9565b610e26565b60405161037091906129f6565b60405180910390f35b610393600480360381019061038e919061204e565b610eda565b005b60007f80ac58cd000000000000000000000000000000000000000000000000000000007bffffffffffffffffffffffffffffffffffffffffffffffffffffffff1916827bffffffffffffffffffffffffffffffffffffffffffffffffffffffff1916148061046057507f5b5e139f000000000000000000000000000000000000000000000000000000007bffffffffffffffffffffffffffffffffffffffffffffffffffffffff1916827bffffffffffffffffffffffffffffffffffffffffffffffffffffffff1916145b80610470575061046f82610fd2565b5b9050919050565b60606000805461048690612c96565b80601f01602080910402602001604051908101604052809291908181526020018280546104b290612c96565b80156104ff5780601f106104d4576101008083540402835291602001916104ff565b820191906000526020600020905b8154815290600101906020018083116104e257829003601f168201915b5050505050905090565b60006105148261103c565b610553576040517f08c379a000000000000000000000000000000000000000000000000000000000815260040161054a90612956565b60405180910390fd5b6004600083815260200190815260200160002060009054906101000a900473ffffffffffffffffffffffffffffffffffffffff169050919050565b600061059982610948565b90508073ffffffffffffffffffffffffffffffffffffffff168373ffffffffffffffffffffffffffffffffffffffff16141561060a576040517f08c379a0000000000000000000000000000000000000000000000000000000008152600401610601906129b6565b60405180910390fd5b8073ffffffffffffffffffffffffffffffffffffffff166106296110a8565b73ffffffffffffffffffffffffffffffffffffffff1614806106585750610657816106526110a8565b610dc0565b5b610697576040517f08c379a000000000000000000000000000000000000000000000000000000000815260040161068e90612896565b60405180910390fd5b6106a183836110b0565b505050565b60606106b06110a8565b73ffffffffffffffffffffffffffffffffffffffff166106ce610b3a565b73ffffffffffffffffffffffffffffffffffffffff1614610724576040517f08c379a000000000000000000000000000000000000000000000000000000000815260040161071b90612976565b60405180910390fd5b600061072f336109fa565b905060008114156107b757600067ffffffffffffffff81111561077b577f4e487b7100000000000000000000000000000000000000000000000000000000600052604160045260246000fd5b6040519080825280602002602001820160405280156107ae57816020015b60608152602001906001900390816107995790505b509150506108c5565b60008167ffffffffffffffff8111156107f9577f4e487b7100000000000000000000000000000000000000000000000000000000600052604160045260246000fd5b60405190808252806020026020018201604052801561082c57816020015b60608152602001906001900390816108175790505b509050600061083b6008611169565b9050600080600190505b8281116108bc5761085581610c6e565b84838151811061088e577f4e487b7100000000000000000000000000000000000000000000000000000000600052603260045260246000fd5b60200260200101819052506001826108a69190612b25565b91506001816108b59190612b25565b9050610845565b83955050505050505b90565b6108d96108d36110a8565b82611177565b610918576040517f08c379a000000000000000000000000000000000000000000000000000000000815260040161090f906129d6565b60405180910390fd5b610923838383611255565b505050565b61094383838360405180602001604052806000815250610c0c565b505050565b6000806002600084815260200190815260200160002060009054906101000a900473ffffffffffffffffffffffffffffffffffffffff169050600073ffffffffffffffffffffffffffffffffffffffff168173ffffffffffffffffffffffffffffffffffffffff1614156109f1576040517f08c379a00000000000000000000000000000000000000000000000000000000081526004016109e8906128d6565b60405180910390fd5b80915050919050565b60008073ffffffffffffffffffffffffffffffffffffffff168273ffffffffffffffffffffffffffffffffffffffff161415610a6b576040517f08c379a0000000000000000000000000000000000000000000000000000000008152600401610a62906128b6565b60405180910390fd5b600360008373ffffffffffffffffffffffffffffffffffffffff1673ffffffffffffffffffffffffffffffffffffffff168152602001908152602001600020549050919050565b610aba6110a8565b73ffffffffffffffffffffffffffffffffffffffff16610ad8610b3a565b73ffffffffffffffffffffffffffffffffffffffff1614610b2e576040517f08c379a0000000000000000000000000000000000000000000000000000000008152600401610b2590612976565b60405180910390fd5b610b3860006114bc565b565b6000600760009054906101000a900473ffffffffffffffffffffffffffffffffffffffff16905090565b606060018054610b7390612c96565b80601f0160208091040260200160405190810160405280929190818152602001828054610b9f90612c96565b8015610bec5780601f10610bc157610100808354040283529160200191610bec565b820191906000526020600020905b815481529060010190602001808311610bcf57829003601f168201915b5050505050905090565b610c08610c016110a8565b8383611582565b5050565b610c1d610c176110a8565b83611177565b610c5c576040517f08c379a0000000000000000000000000000000000000000000000000000000008152600401610c53906129d6565b60405180910390fd5b610c68848484846116ef565b50505050565b6060610c798261103c565b610cb8576040517f08c379a0000000000000000000000000000000000000000000000000000000008152600401610caf90612936565b60405180910390fd5b6000600660008481526020019081526020016000208054610cd890612c96565b80601f0160208091040260200160405190810160405280929190818152602001828054610d0490612c96565b8015610d515780601f10610d2657610100808354040283529160200191610d51565b820191906000526020600020905b815481529060010190602001808311610d3457829003601f168201915b505050505090506000610d6261174b565b9050600081511415610d78578192505050610dbb565b600082511115610dad578082604051602001610d959291906126cc565b60405160208183030381529060405292505050610dbb565b610db684611762565b925050505b919050565b60007358807bad0b376efc12f5ad86aac70e78ed67deae73ffffffffffffffffffffffffffffffffffffffff168273ffffffffffffffffffffffffffffffffffffffff161415610e135760019050610e20565b610e1d8383611809565b90505b92915050565b6000610e306110a8565b73ffffffffffffffffffffffffffffffffffffffff16610e4e610b3a565b73ffffffffffffffffffffffffffffffffffffffff1614610ea4576040517f08c379a0000000000000000000000000000000000000000000000000000000008152600401610e9b90612976565b60405180910390fd5b610eae600861189d565b6000610eba6008611169565b9050610ec684826118b3565b610ed08184611a8d565b8091505092915050565b610ee26110a8565b73ffffffffffffffffffffffffffffffffffffffff16610f00610b3a565b73ffffffffffffffffffffffffffffffffffffffff1614610f56576040517f08c379a0000000000000000000000000000000000000000000000000000000008152600401610f4d90612976565b60405180910390fd5b600073ffffffffffffffffffffffffffffffffffffffff168173ffffffffffffffffffffffffffffffffffffffff161415610fc6576040517f08c379a0000000000000000000000000000000000000000000000000000000008152600401610fbd906127d6565b60405180910390fd5b610fcf816114bc565b50565b60007f01ffc9a7000000000000000000000000000000000000000000000000000000007bffffffffffffffffffffffffffffffffffffffffffffffffffffffff1916827bffffffffffffffffffffffffffffffffffffffffffffffffffffffff1916149050919050565b60008073ffffffffffffffffffffffffffffffffffffffff166002600084815260200190815260200160002060009054906101000a900473ffffffffffffffffffffffffffffffffffffffff1673ffffffffffffffffffffffffffffffffffffffff1614159050919050565b600033905090565b816004600083815260200190815260200160002060006101000a81548173ffffffffffffffffffffffffffffffffffffffff021916908373ffffffffffffffffffffffffffffffffffffffff160217905550808273ffffffffffffffffffffffffffffffffffffffff1661112383610948565b73ffffffffffffffffffffffffffffffffffffffff167f8c5be1e5ebec7d5bd14f71427d1e84f3dd0314c0f7b2291e5b200ac8c7c3b92560405160405180910390a45050565b600081600001549050919050565b60006111828261103c565b6111c1576040517f08c379a00000000000000000000000000000000000000000000000000000000081526004016111b890612876565b60405180910390fd5b60006111cc83610948565b90508073ffffffffffffffffffffffffffffffffffffffff168473ffffffffffffffffffffffffffffffffffffffff16148061120e575061120d8185610dc0565b5b8061124c57508373ffffffffffffffffffffffffffffffffffffffff1661123484610509565b73ffffffffffffffffffffffffffffffffffffffff16145b91505092915050565b8273ffffffffffffffffffffffffffffffffffffffff1661127582610948565b73ffffffffffffffffffffffffffffffffffffffff16146112cb576040517f08c379a00000000000000000000000000000000000000000000000000000000081526004016112c2906127f6565b60405180910390fd5b600073ffffffffffffffffffffffffffffffffffffffff168273ffffffffffffffffffffffffffffffffffffffff16141561133b576040517f08c379a000000000000000000000000000000000000000000000000000000000815260040161133290612836565b60405180910390fd5b611346838383611b01565b6113516000826110b0565b6001600360008573ffffffffffffffffffffffffffffffffffffffff1673ffffffffffffffffffffffffffffffffffffffff16815260200190815260200160002060008282546113a19190612bac565b925050819055506001600360008473ffffffffffffffffffffffffffffffffffffffff1673ffffffffffffffffffffffffffffffffffffffff16815260200190815260200160002060008282546113f89190612b25565b92505081905550816002600083815260200190815260200160002060006101000a81548173ffffffffffffffffffffffffffffffffffffffff021916908373ffffffffffffffffffffffffffffffffffffffff160217905550808273ffffffffffffffffffffffffffffffffffffffff168473ffffffffffffffffffffffffffffffffffffffff167fddf252ad1be2c89b69c2b068fc378daa952ba7f163c4a11628f55a4df523b3ef60405160405180910390a46114b7838383611b06565b505050565b6000600760009054906101000a900473ffffffffffffffffffffffffffffffffffffffff16905081600760006101000a81548173ffffffffffffffffffffffffffffffffffffffff021916908373ffffffffffffffffffffffffffffffffffffffff1602179055508173ffffffffffffffffffffffffffffffffffffffff168173ffffffffffffffffffffffffffffffffffffffff167f8be0079c531659141344cd1fd0a4f28419497f9722a3daafe3b4186f6b6457e060405160405180910390a35050565b8173ffffffffffffffffffffffffffffffffffffffff168373ffffffffffffffffffffffffffffffffffffffff1614156115f1576040517f08c379a00000000000000000000000000000000000000000000000000000000081526004016115e890612856565b60405180910390fd5b80600560008573ffffffffffffffffffffffffffffffffffffffff1673ffffffffffffffffffffffffffffffffffffffff16815260200190815260200160002060008473ffffffffffffffffffffffffffffffffffffffff1673ffffffffffffffffffffffffffffffffffffffff16815260200190815260200160002060006101000a81548160ff0219169083151502179055508173ffffffffffffffffffffffffffffffffffffffff168373ffffffffffffffffffffffffffffffffffffffff167f17307eab39ab6107e8899845ad3d59bd9653f200f220920489ca2b5937696c31836040516116e29190612779565b60405180910390a3505050565b6116fa848484611255565b61170684848484611b0b565b611745576040517f08c379a000000000000000000000000000000000000000000000000000000000815260040161173c906127b6565b60405180910390fd5b50505050565b606060405180602001604052806000815250905090565b606061176d8261103c565b6117ac576040517f08c379a00000000000000000000000000000000000000000000000000000000081526004016117a390612996565b60405180910390fd5b60006117b661174b565b905060008151116117d65760405180602001604052806000815250611801565b806117e084611ca2565b6040516020016117f19291906126cc565b6040516020818303038152906040525b915050919050565b6000600560008473ffffffffffffffffffffffffffffffffffffffff1673ffffffffffffffffffffffffffffffffffffffff16815260200190815260200160002060008373ffffffffffffffffffffffffffffffffffffffff1673ffffffffffffffffffffffffffffffffffffffff16815260200190815260200160002060009054906101000a900460ff16905092915050565b6001816000016000828254019250508190555050565b600073ffffffffffffffffffffffffffffffffffffffff168273ffffffffffffffffffffffffffffffffffffffff161415611923576040517f08c379a000000000000000000000000000000000000000000000000000000000815260040161191a90612916565b60405180910390fd5b61192c8161103c565b1561196c576040517f08c379a000000000000000000000000000000000000000000000000000000000815260040161196390612816565b60405180910390fd5b61197860008383611b01565b6001600360008473ffffffffffffffffffffffffffffffffffffffff1673ffffffffffffffffffffffffffffffffffffffff16815260200190815260200160002060008282546119c89190612b25565b92505081905550816002600083815260200190815260200160002060006101000a81548173ffffffffffffffffffffffffffffffffffffffff021916908373ffffffffffffffffffffffffffffffffffffffff160217905550808273ffffffffffffffffffffffffffffffffffffffff16600073ffffffffffffffffffffffffffffffffffffffff167fddf252ad1be2c89b69c2b068fc378daa952ba7f163c4a11628f55a4df523b3ef60405160405180910390a4611a8960008383611b06565b5050565b611a968261103c565b611ad5576040517f08c379a0000000000000000000000000000000000000000000000000000000008152600401611acc906128f6565b60405180910390fd5b80600660008481526020019081526020016000209080519060200190611afc929190611e72565b505050565b505050565b505050565b6000611b2c8473ffffffffffffffffffffffffffffffffffffffff16611e4f565b15611c95578373ffffffffffffffffffffffffffffffffffffffff1663150b7a02611b556110a8565b8786866040518563ffffffff1660e01b8152600401611b77949392919061270b565b602060405180830381600087803b158015611b9157600080fd5b505af1925050508015611bc257506040513d601f19601f82011682018060405250810190611bbf9190612272565b60015b611c45573d8060008114611bf2576040519150601f19603f3d011682016040523d82523d6000602084013e611bf7565b606091505b50600081511415611c3d576040517f08c379a0000000000000000000000000000000000000000000000000000000008152600401611c34906127b6565b60405180910390fd5b805181602001fd5b63150b7a0260e01b7bffffffffffffffffffffffffffffffffffffffffffffffffffffffff1916817bffffffffffffffffffffffffffffffffffffffffffffffffffffffff191614915050611c9a565b600190505b949350505050565b60606000821415611cea576040518060400160405280600181526020017f30000000000000000000000000000000000000000000000000000000000000008152509050611e4a565b600082905060005b60008214611d1c578080611d0590612cf9565b915050600a82611d159190612b7b565b9150611cf2565b60008167ffffffffffffffff811115611d5e577f4e487b7100000000000000000000000000000000000000000000000000000000600052604160045260246000fd5b6040519080825280601f01601f191660200182016040528015611d905781602001600182028036833780820191505090505b5090505b60008514611e4357600182611da99190612bac565b9150600a85611db89190612d42565b6030611dc49190612b25565b60f81b818381518110611e00577f4e487b7100000000000000000000000000000000000000000000000000000000600052603260045260246000fd5b60200101907effffffffffffffffffffffffffffffffffffffffffffffffffffffffffffff1916908160001a905350600a85611e3c9190612b7b565b9450611d94565b8093505050505b919050565b6000808273ffffffffffffffffffffffffffffffffffffffff163b119050919050565b828054611e7e90612c96565b90600052602060002090601f016020900481019282611ea05760008555611ee7565b82601f10611eb957805160ff1916838001178555611ee7565b82800160010185558215611ee7579182015b82811115611ee6578251825591602001919060010190611ecb565b5b509050611ef49190611ef8565b5090565b5b80821115611f11576000816000905550600101611ef9565b5090565b6000611f28611f2384612a36565b612a11565b905082815260208101848484011115611f4057600080fd5b611f4b848285612c54565b509392505050565b6000611f66611f6184612a67565b612a11565b905082815260208101848484011115611f7e57600080fd5b611f89848285612c54565b509392505050565b600081359050611fa081613336565b92915050565b600081359050611fb58161334d565b92915050565b600081359050611fca81613364565b92915050565b600081519050611fdf81613364565b92915050565b600082601f830112611ff657600080fd5b8135612006848260208601611f15565b91505092915050565b600082601f83011261202057600080fd5b8135612030848260208601611f53565b91505092915050565b6000813590506120488161337b565b92915050565b60006020828403121561206057600080fd5b600061206e84828501611f91565b91505092915050565b6000806040838503121561208a57600080fd5b600061209885828601611f91565b92505060206120a985828601611f91565b9150509250929050565b6000806000606084860312156120c857600080fd5b60006120d686828701611f91565b93505060206120e786828701611f91565b92505060406120f886828701612039565b9150509250925092565b6000806000806080858703121561211857600080fd5b600061212687828801611f91565b945050602061213787828801611f91565b935050604061214887828801612039565b925050606085013567ffffffffffffffff81111561216557600080fd5b61217187828801611fe5565b91505092959194509250565b6000806040838503121561219057600080fd5b600061219e85828601611f91565b92505060206121af85828601611fa6565b9150509250929050565b600080604083850312156121cc57600080fd5b60006121da85828601611f91565b925050602083013567ffffffffffffffff8111156121f757600080fd5b6122038582860161200f565b9150509250929050565b6000806040838503121561222057600080fd5b600061222e85828601611f91565b925050602061223f85828601612039565b9150509250929050565b60006020828403121561225b57600080fd5b600061226984828501611fbb565b91505092915050565b60006020828403121561228457600080fd5b600061229284828501611fd0565b91505092915050565b6000602082840312156122ad57600080fd5b60006122bb84828501612039565b91505092915050565b60006122d083836123a4565b905092915050565b6122e181612be0565b82525050565b60006122f282612aa8565b6122fc8185612ad6565b93508360208202850161230e85612a98565b8060005b8581101561234a578484038952815161232b85826122c4565b945061233683612ac9565b925060208a01995050600181019050612312565b50829750879550505050505092915050565b61236581612bf2565b82525050565b600061237682612ab3565b6123808185612ae7565b9350612390818560208601612c63565b61239981612e2f565b840191505092915050565b60006123af82612abe565b6123b98185612af8565b93506123c9818560208601612c63565b6123d281612e2f565b840191505092915050565b60006123e882612abe565b6123f28185612b09565b9350612402818560208601612c63565b61240b81612e2f565b840191505092915050565b600061242182612abe565b61242b8185612b1a565b935061243b818560208601612c63565b80840191505092915050565b6000612454603283612b09565b915061245f82612e40565b604082019050919050565b6000612477602683612b09565b915061248282612e8f565b604082019050919050565b600061249a602583612b09565b91506124a582612ede565b604082019050919050565b60006124bd601c83612b09565b91506124c882612f2d565b602082019050919050565b60006124e0602483612b09565b91506124eb82612f56565b604082019050919050565b6000612503601983612b09565b915061250e82612fa5565b602082019050919050565b6000612526602c83612b09565b915061253182612fce565b604082019050919050565b6000612549603883612b09565b91506125548261301d565b604082019050919050565b600061256c602a83612b09565b91506125778261306c565b604082019050919050565b600061258f602983612b09565b915061259a826130bb565b604082019050919050565b60006125b2602e83612b09565b91506125bd8261310a565b604082019050919050565b60006125d5602083612b09565b91506125e082613159565b602082019050919050565b60006125f8603183612b09565b915061260382613182565b604082019050919050565b600061261b602c83612b09565b9150612626826131d1565b604082019050919050565b600061263e602083612b09565b915061264982613220565b602082019050919050565b6000612661602f83612b09565b915061266c82613249565b604082019050919050565b6000612684602183612b09565b915061268f82613298565b604082019050919050565b60006126a7603183612b09565b91506126b2826132e7565b604082019050919050565b6126c681612c4a565b82525050565b60006126d88285612416565b91506126e48284612416565b91508190509392505050565b600060208201905061270560008301846122d8565b92915050565b600060808201905061272060008301876122d8565b61272d60208301866122d8565b61273a60408301856126bd565b818103606083015261274c818461236b565b905095945050505050565b6000602082019050818103600083015261277181846122e7565b905092915050565b600060208201905061278e600083018461235c565b92915050565b600060208201905081810360008301526127ae81846123dd565b905092915050565b600060208201905081810360008301526127cf81612447565b9050919050565b600060208201905081810360008301526127ef8161246a565b9050919050565b6000602082019050818103600083015261280f8161248d565b9050919050565b6000602082019050818103600083015261282f816124b0565b9050919050565b6000602082019050818103600083015261284f816124d3565b9050919050565b6000602082019050818103600083015261286f816124f6565b9050919050565b6000602082019050818103600083015261288f81612519565b9050919050565b600060208201905081810360008301526128af8161253c565b9050919050565b600060208201905081810360008301526128cf8161255f565b9050919050565b600060208201905081810360008301526128ef81612582565b9050919050565b6000602082019050818103600083015261290f816125a5565b9050919050565b6000602082019050818103600083015261292f816125c8565b9050919050565b6000602082019050818103600083015261294f816125eb565b9050919050565b6000602082019050818103600083015261296f8161260e565b9050919050565b6000602082019050818103600083015261298f81612631565b9050919050565b600060208201905081810360008301526129af81612654565b9050919050565b600060208201905081810360008301526129cf81612677565b9050919050565b600060208201905081810360008301526129ef8161269a565b9050919050565b6000602082019050612a0b60008301846126bd565b92915050565b6000612a1b612a2c565b9050612a278282612cc8565b919050565b6000604051905090565b600067ffffffffffffffff821115612a5157612a50612e00565b5b612a5a82612e2f565b9050602081019050919050565b600067ffffffffffffffff821115612a8257612a81612e00565b5b612a8b82612e2f565b9050602081019050919050565b6000819050602082019050919050565b600081519050919050565b600081519050919050565b600081519050919050565b6000602082019050919050565b600082825260208201905092915050565b600082825260208201905092915050565b600082825260208201905092915050565b600082825260208201905092915050565b600081905092915050565b6000612b3082612c4a565b9150612b3b83612c4a565b9250827fffffffffffffffffffffffffffffffffffffffffffffffffffffffffffffffff03821115612b7057612b6f612d73565b5b828201905092915050565b6000612b8682612c4a565b9150612b9183612c4a565b925082612ba157612ba0612da2565b5b828204905092915050565b6000612bb782612c4a565b9150612bc283612c4a565b925082821015612bd557612bd4612d73565b5b828203905092915050565b6000612beb82612c2a565b9050919050565b60008115159050919050565b60007fffffffff0000000000000000000000000000000000000000000000000000000082169050919050565b600073ffffffffffffffffffffffffffffffffffffffff82169050919050565b6000819050919050565b82818337600083830152505050565b60005b83811015612c81578082015181840152602081019050612c66565b83811115612c90576000848401525b50505050565b60006002820490506001821680612cae57607f821691505b60208210811415612cc257612cc1612dd1565b5b50919050565b612cd182612e2f565b810181811067ffffffffffffffff82111715612cf057612cef612e00565b5b80604052505050565b6000612d0482612c4a565b91507fffffffffffffffffffffffffffffffffffffffffffffffffffffffffffffffff821415612d3757612d36612d73565b5b600182019050919050565b6000612d4d82612c4a565b9150612d5883612c4a565b925082612d6857612d67612da2565b5b828206905092915050565b7f4e487b7100000000000000000000000000000000000000000000000000000000600052601160045260246000fd5b7f4e487b7100000000000000000000000000000000000000000000000000000000600052601260045260246000fd5b7f4e487b7100000000000000000000000000000000000000000000000000000000600052602260045260246000fd5b7f4e487b7100000000000000000000000000000000000000000000000000000000600052604160045260246000fd5b6000601f19601f8301169050919050565b7f4552433732313a207472616e7366657220746f206e6f6e20455243373231526560008201527f63656976657220696d706c656d656e7465720000000000000000000000000000602082015250565b7f4f776e61626c653a206e6577206f776e657220697320746865207a65726f206160008201527f6464726573730000000000000000000000000000000000000000000000000000602082015250565b7f4552433732313a207472616e736665722066726f6d20696e636f72726563742060008201527f6f776e6572000000000000000000000000000000000000000000000000000000602082015250565b7f4552433732313a20746f6b656e20616c7265616479206d696e74656400000000600082015250565b7f4552433732313a207472616e7366657220746f20746865207a65726f2061646460008201527f7265737300000000000000000000000000000000000000000000000000000000602082015250565b7f4552433732313a20617070726f766520746f2063616c6c657200000000000000600082015250565b7f4552433732313a206f70657261746f7220717565727920666f72206e6f6e657860008201527f697374656e7420746f6b656e0000000000000000000000000000000000000000602082015250565b7f4552433732313a20617070726f76652063616c6c6572206973206e6f74206f7760008201527f6e6572206e6f7220617070726f76656420666f7220616c6c0000000000000000602082015250565b7f4552433732313a2062616c616e636520717565727920666f7220746865207a6560008201527f726f206164647265737300000000000000000000000000000000000000000000602082015250565b7f4552433732313a206f776e657220717565727920666f72206e6f6e657869737460008201527f656e7420746f6b656e0000000000000000000000000000000000000000000000602082015250565b7f45524337323155524953746f726167653a2055524920736574206f66206e6f6e60008201527f6578697374656e7420746f6b656e000000000000000000000000000000000000602082015250565b7f4552433732313a206d696e7420746f20746865207a65726f2061646472657373600082015250565b7f45524337323155524953746f726167653a2055524920717565727920666f722060008201527f6e6f6e6578697374656e7420746f6b656e000000000000000000000000000000602082015250565b7f4552433732313a20617070726f76656420717565727920666f72206e6f6e657860008201527f697374656e7420746f6b656e0000000000000000000000000000000000000000602082015250565b7f4f776e61626c653a2063616c6c6572206973206e6f7420746865206f776e6572600082015250565b7f4552433732314d657461646174613a2055524920717565727920666f72206e6f60008201527f6e6578697374656e7420746f6b656e0000000000000000000000000000000000602082015250565b7f4552433732313a20617070726f76616c20746f2063757272656e74206f776e6560008201527f7200000000000000000000000000000000000000000000000000000000000000602082015250565b7f4552433732313a207472616e736665722063616c6c6572206973206e6f74206f60008201527f776e6572206e6f7220617070726f766564000000000000000000000000000000602082015250565b61333f81612be0565b811461334a57600080fd5b50565b61335681612bf2565b811461336157600080fd5b50565b61336d81612bfe565b811461337857600080fd5b50565b61338481612c4a565b811461338f57600080fd5b5056fea26469706673582212207f604249dd57b5dc9b588b0f16d4fe80c16df7876ed06bd15ebb4eb31681473864736f6c63430008040033",
  "linkReferences": {},
  "deployedLinkReferences": {}
}